{
  "address": "0x560421bc44391Cb51e5E6CE65A7c1111336A56Fa",
  "abi": [
    {
      "inputs": [
        {
          "internalType": "address",
          "name": "vrfCoordinatorV2",
          "type": "address"
        },
        {
          "internalType": "bytes32",
          "name": "gasLane",
          "type": "bytes32"
        },
        {
          "internalType": "uint64",
          "name": "subscriptionId",
          "type": "uint64"
        },
        {
          "internalType": "uint32",
          "name": "callbackGasLimit",
          "type": "uint32"
        },
        {
          "internalType": "string[3]",
          "name": "dogTokenUris",
          "type": "string[3]"
        }
      ],
      "stateMutability": "nonpayable",
      "type": "constructor"
    },
    {
      "inputs": [
        {
          "internalType": "address",
          "name": "have",
          "type": "address"
        },
        {
          "internalType": "address",
          "name": "want",
          "type": "address"
        }
      ],
      "name": "OnlyCoordinatorCanFulfill",
      "type": "error"
    },
    {
      "anonymous": false,
      "inputs": [
        {
          "indexed": true,
          "internalType": "address",
          "name": "owner",
          "type": "address"
        },
        {
          "indexed": true,
          "internalType": "address",
          "name": "approved",
          "type": "address"
        },
        {
          "indexed": true,
          "internalType": "uint256",
          "name": "tokenId",
          "type": "uint256"
        }
      ],
      "name": "Approval",
      "type": "event"
    },
    {
      "anonymous": false,
      "inputs": [
        {
          "indexed": true,
          "internalType": "address",
          "name": "owner",
          "type": "address"
        },
        {
          "indexed": true,
          "internalType": "address",
          "name": "operator",
          "type": "address"
        },
        {
          "indexed": false,
          "internalType": "bool",
          "name": "approved",
          "type": "bool"
        }
      ],
      "name": "ApprovalForAll",
      "type": "event"
    },
    {
      "anonymous": false,
      "inputs": [
        {
          "indexed": true,
          "internalType": "address",
          "name": "from",
          "type": "address"
        },
        {
          "indexed": true,
          "internalType": "address",
          "name": "to",
          "type": "address"
        },
        {
          "indexed": true,
          "internalType": "uint256",
          "name": "tokenId",
          "type": "uint256"
        }
      ],
      "name": "Transfer",
      "type": "event"
    },
    {
      "inputs": [
        {
          "internalType": "address",
          "name": "to",
          "type": "address"
        },
        {
          "internalType": "uint256",
          "name": "tokenId",
          "type": "uint256"
        }
      ],
      "name": "approve",
      "outputs": [],
      "stateMutability": "nonpayable",
      "type": "function"
    },
    {
      "inputs": [
        {
          "internalType": "address",
          "name": "owner",
          "type": "address"
        }
      ],
      "name": "balanceOf",
      "outputs": [
        {
          "internalType": "uint256",
          "name": "",
          "type": "uint256"
        }
      ],
      "stateMutability": "view",
      "type": "function"
    },
    {
      "inputs": [
        {
          "internalType": "uint256",
          "name": "tokenId",
          "type": "uint256"
        }
      ],
      "name": "getApproved",
      "outputs": [
        {
          "internalType": "address",
          "name": "",
          "type": "address"
        }
      ],
      "stateMutability": "view",
      "type": "function"
    },
    {
      "inputs": [
        {
          "internalType": "uint256",
          "name": "moddedRng",
          "type": "uint256"
        }
      ],
      "name": "getBreedFromModdedRng",
      "outputs": [
        {
          "internalType": "uint256",
          "name": "",
          "type": "uint256"
        }
      ],
      "stateMutability": "pure",
      "type": "function"
    },
    {
      "inputs": [],
      "name": "getChanceArray",
      "outputs": [
        {
          "internalType": "uint256[3]",
          "name": "",
          "type": "uint256[3]"
        }
      ],
      "stateMutability": "pure",
      "type": "function"
    },
    {
      "inputs": [
        {
          "internalType": "address",
          "name": "owner",
          "type": "address"
        },
        {
          "internalType": "address",
          "name": "operator",
          "type": "address"
        }
      ],
      "name": "isApprovedForAll",
      "outputs": [
        {
          "internalType": "bool",
          "name": "",
          "type": "bool"
        }
      ],
      "stateMutability": "view",
      "type": "function"
    },
    {
      "inputs": [],
      "name": "name",
      "outputs": [
        {
          "internalType": "string",
          "name": "",
          "type": "string"
        }
      ],
      "stateMutability": "view",
      "type": "function"
    },
    {
      "inputs": [
        {
          "internalType": "uint256",
          "name": "tokenId",
          "type": "uint256"
        }
      ],
      "name": "ownerOf",
      "outputs": [
        {
          "internalType": "address",
          "name": "",
          "type": "address"
        }
      ],
      "stateMutability": "view",
      "type": "function"
    },
    {
      "inputs": [
        {
          "internalType": "uint256",
          "name": "requestId",
          "type": "uint256"
        },
        {
          "internalType": "uint256[]",
          "name": "randomWords",
          "type": "uint256[]"
        }
      ],
      "name": "rawFulfillRandomWords",
      "outputs": [],
      "stateMutability": "nonpayable",
      "type": "function"
    },
    {
      "inputs": [],
      "name": "requestDoggie",
      "outputs": [
        {
          "internalType": "uint256",
          "name": "requestId",
          "type": "uint256"
        }
      ],
      "stateMutability": "nonpayable",
      "type": "function"
    },
    {
      "inputs": [
        {
          "internalType": "uint256",
          "name": "",
          "type": "uint256"
        }
      ],
      "name": "s_requestIdToSender",
      "outputs": [
        {
          "internalType": "address",
          "name": "",
          "type": "address"
        }
      ],
      "stateMutability": "view",
      "type": "function"
    },
    {
      "inputs": [],
      "name": "s_tokenCounter",
      "outputs": [
        {
          "internalType": "uint256",
          "name": "",
          "type": "uint256"
        }
      ],
      "stateMutability": "view",
      "type": "function"
    },
    {
      "inputs": [
        {
          "internalType": "address",
          "name": "from",
          "type": "address"
        },
        {
          "internalType": "address",
          "name": "to",
          "type": "address"
        },
        {
          "internalType": "uint256",
          "name": "tokenId",
          "type": "uint256"
        }
      ],
      "name": "safeTransferFrom",
      "outputs": [],
      "stateMutability": "nonpayable",
      "type": "function"
    },
    {
      "inputs": [
        {
          "internalType": "address",
          "name": "from",
          "type": "address"
        },
        {
          "internalType": "address",
          "name": "to",
          "type": "address"
        },
        {
          "internalType": "uint256",
          "name": "tokenId",
          "type": "uint256"
        },
        {
          "internalType": "bytes",
          "name": "data",
          "type": "bytes"
        }
      ],
      "name": "safeTransferFrom",
      "outputs": [],
      "stateMutability": "nonpayable",
      "type": "function"
    },
    {
      "inputs": [
        {
          "internalType": "address",
          "name": "operator",
          "type": "address"
        },
        {
          "internalType": "bool",
          "name": "approved",
          "type": "bool"
        }
      ],
      "name": "setApprovalForAll",
      "outputs": [],
      "stateMutability": "nonpayable",
      "type": "function"
    },
    {
      "inputs": [
        {
          "internalType": "bytes4",
          "name": "interfaceId",
          "type": "bytes4"
        }
      ],
      "name": "supportsInterface",
      "outputs": [
        {
          "internalType": "bool",
          "name": "",
          "type": "bool"
        }
      ],
      "stateMutability": "view",
      "type": "function"
    },
    {
      "inputs": [],
      "name": "symbol",
      "outputs": [
        {
          "internalType": "string",
          "name": "",
          "type": "string"
        }
      ],
      "stateMutability": "view",
      "type": "function"
    },
    {
      "inputs": [
        {
          "internalType": "uint256",
          "name": "tokenId",
          "type": "uint256"
        }
      ],
      "name": "tokenURI",
      "outputs": [
        {
          "internalType": "string",
          "name": "",
          "type": "string"
        }
      ],
      "stateMutability": "view",
      "type": "function"
    },
    {
      "inputs": [
        {
          "internalType": "address",
          "name": "from",
          "type": "address"
        },
        {
          "internalType": "address",
          "name": "to",
          "type": "address"
        },
        {
          "internalType": "uint256",
          "name": "tokenId",
          "type": "uint256"
        }
      ],
      "name": "transferFrom",
      "outputs": [],
      "stateMutability": "nonpayable",
      "type": "function"
    }
  ],
  "transactionHash": "0x636af6aa4b4fb0aad24313fefc9c421af185bafffb6d4388689f6057a0a286eb",
  "args": [
    "0x2ca8e0c643bde4c2e08ab1fa0da3401adad7734d",
    "0x79d3d8832d904592c0bf9818b621522c988bb8b0c05cdc3b15aea1b6e8db0c15",
    "8527",
    "500000",
    [
      "ipfs://QmaVkBn2tKmjbhphU7eyztbvSQU5EXDdqRyXZtRhSGgJGo",
      "ipfs://QmYQC5aGZu2PTH8XzbJrbDnvhj3gVs7ya33H9mqUNvST3d",
      "ipfs://QmZYmH5iDbD6v3U2ixoVAjioSzvWJszDzYdbeCLquGSpVm"
    ]
  ],
  "numDeployments": 1,
  "solcInputHash": "be4be620b0409af2563c2b669e85f09b",
  "bytecode": "0x6101206040523480156200001257600080fd5b5060405162003e8438038062003e84833981810160405281019062000038919062000617565b846040518060400160405280600a81526020017f52616e646f6d20446f67000000000000000000000000000000000000000000008152506040518060400160405280600381526020017f524d4400000000000000000000000000000000000000000000000000000000008152508160009081620000b6919062000909565b508060019081620000c8919062000909565b5050508073ffffffffffffffffffffffffffffffffffffffff1660808173ffffffffffffffffffffffffffffffffffffffff1681525050508473ffffffffffffffffffffffffffffffffffffffff1660a08173ffffffffffffffffffffffffffffffffffffffff16815250508360c081815250508267ffffffffffffffff1660e08167ffffffffffffffff16815250508163ffffffff166101008163ffffffff168152505060006007819055508060099060036200018892919062000194565b505050505050620009f0565b8260038101928215620001d4579160200282015b82811115620001d3578251829081620001c2919062000909565b5091602001919060010190620001a8565b5b509050620001e39190620001e7565b5090565b5b808211156200020b57600081816200020191906200020f565b50600101620001e8565b5090565b5080546200021d90620006f8565b6000825580601f1062000231575062000252565b601f01602090049060005260206000209081019062000251919062000255565b5b50565b5b808211156200027057600081600090555060010162000256565b5090565b6000604051905090565b600080fd5b600080fd5b600073ffffffffffffffffffffffffffffffffffffffff82169050919050565b6000620002b58262000288565b9050919050565b620002c781620002a8565b8114620002d357600080fd5b50565b600081519050620002e781620002bc565b92915050565b6000819050919050565b6200030281620002ed565b81146200030e57600080fd5b50565b6000815190506200032281620002f7565b92915050565b600067ffffffffffffffff82169050919050565b620003478162000328565b81146200035357600080fd5b50565b60008151905062000367816200033c565b92915050565b600063ffffffff82169050919050565b62000388816200036d565b81146200039457600080fd5b50565b600081519050620003a8816200037d565b92915050565b600080fd5b6000601f19601f8301169050919050565b7f4e487b7100000000000000000000000000000000000000000000000000000000600052604160045260246000fd5b620003fe82620003b3565b810181811067ffffffffffffffff8211171562000420576200041f620003c4565b5b80604052505050565b60006200043562000274565b9050620004438282620003f3565b919050565b600067ffffffffffffffff821115620004665762000465620003c4565b5b602082029050919050565b600080fd5b600080fd5b600067ffffffffffffffff821115620004995762000498620003c4565b5b620004a482620003b3565b9050602081019050919050565b60005b83811015620004d1578082015181840152602081019050620004b4565b60008484015250505050565b6000620004f4620004ee846200047b565b62000429565b90508281526020810184848401111562000513576200051262000476565b5b62000520848285620004b1565b509392505050565b600082601f83011262000540576200053f620003ae565b5b815162000552848260208601620004dd565b91505092915050565b6000620005726200056c8462000448565b62000429565b905080602084028301858111156200058f576200058e62000471565b5b835b81811015620005dd57805167ffffffffffffffff811115620005b857620005b7620003ae565b5b808601620005c7898262000528565b8552602085019450505060208101905062000591565b5050509392505050565b600082601f830112620005ff57620005fe620003ae565b5b60036200060e8482856200055b565b91505092915050565b600080600080600060a086880312156200063657620006356200027e565b5b60006200064688828901620002d6565b9550506020620006598882890162000311565b94505060406200066c8882890162000356565b93505060606200067f8882890162000397565b925050608086015167ffffffffffffffff811115620006a357620006a262000283565b5b620006b188828901620005e7565b9150509295509295909350565b600081519050919050565b7f4e487b7100000000000000000000000000000000000000000000000000000000600052602260045260246000fd5b600060028204905060018216806200071157607f821691505b602082108103620007275762000726620006c9565b5b50919050565b60008190508160005260206000209050919050565b60006020601f8301049050919050565b600082821b905092915050565b600060088302620007917fffffffffffffffffffffffffffffffffffffffffffffffffffffffffffffffff8262000752565b6200079d868362000752565b95508019841693508086168417925050509392505050565b6000819050919050565b6000819050919050565b6000620007ea620007e4620007de84620007b5565b620007bf565b620007b5565b9050919050565b6000819050919050565b6200080683620007c9565b6200081e6200081582620007f1565b8484546200075f565b825550505050565b600090565b6200083562000826565b62000842818484620007fb565b505050565b5b818110156200086a576200085e6000826200082b565b60018101905062000848565b5050565b601f821115620008b95762000883816200072d565b6200088e8462000742565b810160208510156200089e578190505b620008b6620008ad8562000742565b83018262000847565b50505b505050565b600082821c905092915050565b6000620008de60001984600802620008be565b1980831691505092915050565b6000620008f98383620008cb565b9150826002028217905092915050565b6200091482620006be565b67ffffffffffffffff81111562000930576200092f620003c4565b5b6200093c8254620006f8565b620009498282856200086e565b600060209050601f8311600181146200098157600084156200096c578287015190505b620009788582620008eb565b865550620009e8565b601f19841662000991866200072d565b60005b82811015620009bb5784890151825560018201915060208501945060208101905062000994565b86831015620009db5784890151620009d7601f891682620008cb565b8355505b6001600288020188555050505b505050505050565b60805160a05160c05160e0516101005161344862000a3c600039600061073f0152600061071c015260006106fb015260006106bf01526000818161081c015261087001526134486000f3fe608060405234801561001057600080fd5b50600436106101215760003560e01c80635dacf5f4116100ad578063a36f573b11610071578063a36f573b14610308578063a51cccf314610338578063b88d4fde14610368578063c87b56dd14610384578063e985e9c5146103b457610121565b80635dacf5f4146102505780636352211e1461026e57806370a082311461029e57806395d89b41146102ce578063a22cb465146102ec57610121565b80630b21a83b116100f45780630b21a83b146101c05780631801cc8a146101de5780631fe543e3146101fc57806323b872dd1461021857806342842e0e1461023457610121565b806301ffc9a71461012657806306fdde0314610156578063081812fc14610174578063095ea7b3146101a4575b600080fd5b610140600480360381019061013b9190611fd5565b6103e4565b60405161014d919061201d565b60405180910390f35b61015e6104c6565b60405161016b91906120c8565b60405180910390f35b61018e60048036038101906101899190612120565b610558565b60405161019b919061218e565b60405180910390f35b6101be60048036038101906101b991906121d5565b61059e565b005b6101c86106b5565b6040516101d59190612224565b60405180910390f35b6101e66106bb565b6040516101f39190612224565b60405180910390f35b61021660048036038101906102119190612387565b61081a565b005b610232600480360381019061022d91906123e3565b6108da565b005b61024e600480360381019061024991906123e3565b61093a565b005b61025861095a565b60405161026591906124e1565b60405180910390f35b61028860048036038101906102839190612120565b610985565b604051610295919061218e565b60405180910390f35b6102b860048036038101906102b391906124fc565b610a0b565b6040516102c59190612224565b60405180910390f35b6102d6610ac2565b6040516102e391906120c8565b60405180910390f35b61030660048036038101906103019190612555565b610b54565b005b610322600480360381019061031d9190612120565b610b6a565b60405161032f919061218e565b60405180910390f35b610352600480360381019061034d9190612120565b610b9d565b60405161035f9190612224565b60405180910390f35b610382600480360381019061037d919061264a565b610c33565b005b61039e60048036038101906103999190612120565b610c95565b6040516103ab91906120c8565b60405180910390f35b6103ce60048036038101906103c991906126cd565b610da7565b6040516103db919061201d565b60405180910390f35b60007f80ac58cd000000000000000000000000000000000000000000000000000000007bffffffffffffffffffffffffffffffffffffffffffffffffffffffff1916827bffffffffffffffffffffffffffffffffffffffffffffffffffffffff191614806104af57507f5b5e139f000000000000000000000000000000000000000000000000000000007bffffffffffffffffffffffffffffffffffffffffffffffffffffffff1916827bffffffffffffffffffffffffffffffffffffffffffffffffffffffff1916145b806104bf57506104be82610e3b565b5b9050919050565b6060600080546104d59061273c565b80601f01602080910402602001604051908101604052809291908181526020018280546105019061273c565b801561054e5780601f106105235761010080835404028352916020019161054e565b820191906000526020600020905b81548152906001019060200180831161053157829003601f168201915b5050505050905090565b600061056382610ea5565b6004600083815260200190815260200160002060009054906101000a900473ffffffffffffffffffffffffffffffffffffffff169050919050565b60006105a982610985565b90508073ffffffffffffffffffffffffffffffffffffffff168373ffffffffffffffffffffffffffffffffffffffff1603610619576040517f08c379a0000000000000000000000000000000000000000000000000000000008152600401610610906127df565b60405180910390fd5b8073ffffffffffffffffffffffffffffffffffffffff16610638610ef0565b73ffffffffffffffffffffffffffffffffffffffff161480610667575061066681610661610ef0565b610da7565b5b6106a6576040517f08c379a000000000000000000000000000000000000000000000000000000000815260040161069d90612871565b60405180910390fd5b6106b08383610ef8565b505050565b60075481565b60007f000000000000000000000000000000000000000000000000000000000000000073ffffffffffffffffffffffffffffffffffffffff16635d3b1d307f00000000000000000000000000000000000000000000000000000000000000007f000000000000000000000000000000000000000000000000000000000000000060037f000000000000000000000000000000000000000000000000000000000000000060016040518663ffffffff1660e01b8152600401610780959493929190612909565b6020604051808303816000875af115801561079f573d6000803e3d6000fd5b505050506040513d601f19601f820116820180604052508101906107c39190612971565b905033600c600083815260200190815260200160002060006101000a81548173ffffffffffffffffffffffffffffffffffffffff021916908373ffffffffffffffffffffffffffffffffffffffff16021790555090565b7f000000000000000000000000000000000000000000000000000000000000000073ffffffffffffffffffffffffffffffffffffffff163373ffffffffffffffffffffffffffffffffffffffff16146108cc57337f00000000000000000000000000000000000000000000000000000000000000006040517f1cf993f40000000000000000000000000000000000000000000000000000000081526004016108c392919061299e565b60405180910390fd5b6108d68282610fb1565b5050565b6108eb6108e5610ef0565b826110fa565b61092a576040517f08c379a000000000000000000000000000000000000000000000000000000000815260040161092190612a39565b60405180910390fd5b61093583838361118f565b505050565b61095583838360405180602001604052806000815250610c33565b505050565b610962611f47565b6040518060600160405280600a8152602001602881526020016064815250905090565b60008061099183611488565b9050600073ffffffffffffffffffffffffffffffffffffffff168173ffffffffffffffffffffffffffffffffffffffff1603610a02576040517f08c379a00000000000000000000000000000000000000000000000000000000081526004016109f990612aa5565b60405180910390fd5b80915050919050565b60008073ffffffffffffffffffffffffffffffffffffffff168273ffffffffffffffffffffffffffffffffffffffff1603610a7b576040517f08c379a0000000000000000000000000000000000000000000000000000000008152600401610a7290612b37565b60405180910390fd5b600360008373ffffffffffffffffffffffffffffffffffffffff1673ffffffffffffffffffffffffffffffffffffffff168152602001908152602001600020549050919050565b606060018054610ad19061273c565b80601f0160208091040260200160405190810160405280929190818152602001828054610afd9061273c565b8015610b4a5780601f10610b1f57610100808354040283529160200191610b4a565b820191906000526020600020905b815481529060010190602001808311610b2d57829003601f168201915b5050505050905090565b610b66610b5f610ef0565b83836114c5565b5050565b600c6020528060005260406000206000915054906101000a900473ffffffffffffffffffffffffffffffffffffffff1681565b600080600090506000610bae61095a565b905060005b6003811015610c2a57828510158015610be25750818160038110610bda57610bd9612b57565b5b602002015185105b15610bf257809350505050610c2e565b818160038110610c0557610c04612b57565b5b602002015183610c159190612bb5565b92508080610c2290612be9565b915050610bb3565b5050505b919050565b610c44610c3e610ef0565b836110fa565b610c83576040517f08c379a0000000000000000000000000000000000000000000000000000000008152600401610c7a90612a39565b60405180910390fd5b610c8f84848484611631565b50505050565b6060610ca082610ea5565b6000600660008481526020019081526020016000208054610cc09061273c565b80601f0160208091040260200160405190810160405280929190818152602001828054610cec9061273c565b8015610d395780601f10610d0e57610100808354040283529160200191610d39565b820191906000526020600020905b815481529060010190602001808311610d1c57829003601f168201915b505050505090506000610d4a61168d565b90506000815103610d5f578192505050610da2565b600082511115610d94578082604051602001610d7c929190612c6d565b60405160208183030381529060405292505050610da2565b610d9d846116a4565b925050505b919050565b6000600560008473ffffffffffffffffffffffffffffffffffffffff1673ffffffffffffffffffffffffffffffffffffffff16815260200190815260200160002060008373ffffffffffffffffffffffffffffffffffffffff1673ffffffffffffffffffffffffffffffffffffffff16815260200190815260200160002060009054906101000a900460ff16905092915050565b60007f01ffc9a7000000000000000000000000000000000000000000000000000000007bffffffffffffffffffffffffffffffffffffffffffffffffffffffff1916827bffffffffffffffffffffffffffffffffffffffffffffffffffffffff1916149050919050565b610eae8161170c565b610eed576040517f08c379a0000000000000000000000000000000000000000000000000000000008152600401610ee490612aa5565b60405180910390fd5b50565b600033905090565b816004600083815260200190815260200160002060006101000a81548173ffffffffffffffffffffffffffffffffffffffff021916908373ffffffffffffffffffffffffffffffffffffffff160217905550808273ffffffffffffffffffffffffffffffffffffffff16610f6b83610985565b73ffffffffffffffffffffffffffffffffffffffff167f8c5be1e5ebec7d5bd14f71427d1e84f3dd0314c0f7b2291e5b200ac8c7c3b92560405160405180910390a45050565b6000600c600084815260200190815260200160002060009054906101000a900473ffffffffffffffffffffffffffffffffffffffff169050600060075490506007600081548092919061100390612be9565b919050555060006064846000815181106110205761101f612b57565b5b60200260200101516110329190612cc0565b9050600061103f82610b9d565b905061104b848461174d565b6110f2836009836003811061106357611062612b57565b5b01805461106f9061273c565b80601f016020809104026020016040519081016040528092919081815260200182805461109b9061273c565b80156110e85780601f106110bd576101008083540402835291602001916110e8565b820191906000526020600020905b8154815290600101906020018083116110cb57829003601f168201915b505050505061176b565b505050505050565b60008061110683610985565b90508073ffffffffffffffffffffffffffffffffffffffff168473ffffffffffffffffffffffffffffffffffffffff16148061114857506111478185610da7565b5b8061118657508373ffffffffffffffffffffffffffffffffffffffff1661116e84610558565b73ffffffffffffffffffffffffffffffffffffffff16145b91505092915050565b8273ffffffffffffffffffffffffffffffffffffffff166111af82610985565b73ffffffffffffffffffffffffffffffffffffffff1614611205576040517f08c379a00000000000000000000000000000000000000000000000000000000081526004016111fc90612d63565b60405180910390fd5b600073ffffffffffffffffffffffffffffffffffffffff168273ffffffffffffffffffffffffffffffffffffffff1603611274576040517f08c379a000000000000000000000000000000000000000000000000000000000815260040161126b90612df5565b60405180910390fd5b61128183838360016117d8565b8273ffffffffffffffffffffffffffffffffffffffff166112a182610985565b73ffffffffffffffffffffffffffffffffffffffff16146112f7576040517f08c379a00000000000000000000000000000000000000000000000000000000081526004016112ee90612d63565b60405180910390fd5b6004600082815260200190815260200160002060006101000a81549073ffffffffffffffffffffffffffffffffffffffff02191690556001600360008573ffffffffffffffffffffffffffffffffffffffff1673ffffffffffffffffffffffffffffffffffffffff168152602001908152602001600020600082825403925050819055506001600360008473ffffffffffffffffffffffffffffffffffffffff1673ffffffffffffffffffffffffffffffffffffffff16815260200190815260200160002060008282540192505081905550816002600083815260200190815260200160002060006101000a81548173ffffffffffffffffffffffffffffffffffffffff021916908373ffffffffffffffffffffffffffffffffffffffff160217905550808273ffffffffffffffffffffffffffffffffffffffff168473ffffffffffffffffffffffffffffffffffffffff167fddf252ad1be2c89b69c2b068fc378daa952ba7f163c4a11628f55a4df523b3ef60405160405180910390a461148383838360016118fe565b505050565b60006002600083815260200190815260200160002060009054906101000a900473ffffffffffffffffffffffffffffffffffffffff169050919050565b8173ffffffffffffffffffffffffffffffffffffffff168373ffffffffffffffffffffffffffffffffffffffff1603611533576040517f08c379a000000000000000000000000000000000000000000000000000000000815260040161152a90612e61565b60405180910390fd5b80600560008573ffffffffffffffffffffffffffffffffffffffff1673ffffffffffffffffffffffffffffffffffffffff16815260200190815260200160002060008473ffffffffffffffffffffffffffffffffffffffff1673ffffffffffffffffffffffffffffffffffffffff16815260200190815260200160002060006101000a81548160ff0219169083151502179055508173ffffffffffffffffffffffffffffffffffffffff168373ffffffffffffffffffffffffffffffffffffffff167f17307eab39ab6107e8899845ad3d59bd9653f200f220920489ca2b5937696c3183604051611624919061201d565b60405180910390a3505050565b61163c84848461118f565b61164884848484611904565b611687576040517f08c379a000000000000000000000000000000000000000000000000000000000815260040161167e90612ef3565b60405180910390fd5b50505050565b606060405180602001604052806000815250905090565b60606116af82610ea5565b60006116b961168d565b905060008151116116d95760405180602001604052806000815250611704565b806116e384611a8b565b6040516020016116f4929190612c6d565b6040516020818303038152906040525b915050919050565b60008073ffffffffffffffffffffffffffffffffffffffff1661172e83611488565b73ffffffffffffffffffffffffffffffffffffffff1614159050919050565b611767828260405180602001604052806000815250611b59565b5050565b6117748261170c565b6117b3576040517f08c379a00000000000000000000000000000000000000000000000000000000081526004016117aa90612f85565b60405180910390fd5b806006600084815260200190815260200160002090816117d39190613151565b505050565b60018111156118f857600073ffffffffffffffffffffffffffffffffffffffff168473ffffffffffffffffffffffffffffffffffffffff161461186c5780600360008673ffffffffffffffffffffffffffffffffffffffff1673ffffffffffffffffffffffffffffffffffffffff16815260200190815260200160002060008282546118649190613223565b925050819055505b600073ffffffffffffffffffffffffffffffffffffffff168373ffffffffffffffffffffffffffffffffffffffff16146118f75780600360008573ffffffffffffffffffffffffffffffffffffffff1673ffffffffffffffffffffffffffffffffffffffff16815260200190815260200160002060008282546118ef9190612bb5565b925050819055505b5b50505050565b50505050565b60006119258473ffffffffffffffffffffffffffffffffffffffff16611bb4565b15611a7e578373ffffffffffffffffffffffffffffffffffffffff1663150b7a0261194e610ef0565b8786866040518563ffffffff1660e01b815260040161197094939291906132ac565b6020604051808303816000875af19250505080156119ac57506040513d601f19601f820116820180604052508101906119a9919061330d565b60015b611a2e573d80600081146119dc576040519150601f19603f3d011682016040523d82523d6000602084013e6119e1565b606091505b506000815103611a26576040517f08c379a0000000000000000000000000000000000000000000000000000000008152600401611a1d90612ef3565b60405180910390fd5b805181602001fd5b63150b7a0260e01b7bffffffffffffffffffffffffffffffffffffffffffffffffffffffff1916817bffffffffffffffffffffffffffffffffffffffffffffffffffffffff191614915050611a83565b600190505b949350505050565b606060006001611a9a84611bd7565b01905060008167ffffffffffffffff811115611ab957611ab8612244565b5b6040519080825280601f01601f191660200182016040528015611aeb5781602001600182028036833780820191505090505b509050600082602001820190505b600115611b4e578080600190039150507f3031323334353637383961626364656600000000000000000000000000000000600a86061a8153600a8581611b4257611b41612c91565b5b04945060008503611af9575b819350505050919050565b611b638383611d2a565b611b706000848484611904565b611baf576040517f08c379a0000000000000000000000000000000000000000000000000000000008152600401611ba690612ef3565b60405180910390fd5b505050565b6000808273ffffffffffffffffffffffffffffffffffffffff163b119050919050565b600080600090507a184f03e93ff9f4daa797ed6e38ed64bf6a1f0100000000000000008310611c35577a184f03e93ff9f4daa797ed6e38ed64bf6a1f0100000000000000008381611c2b57611c2a612c91565b5b0492506040810190505b6d04ee2d6d415b85acef81000000008310611c72576d04ee2d6d415b85acef81000000008381611c6857611c67612c91565b5b0492506020810190505b662386f26fc100008310611ca157662386f26fc100008381611c9757611c96612c91565b5b0492506010810190505b6305f5e1008310611cca576305f5e1008381611cc057611cbf612c91565b5b0492506008810190505b6127108310611cef576127108381611ce557611ce4612c91565b5b0492506004810190505b60648310611d125760648381611d0857611d07612c91565b5b0492506002810190505b600a8310611d21576001810190505b80915050919050565b600073ffffffffffffffffffffffffffffffffffffffff168273ffffffffffffffffffffffffffffffffffffffff1603611d99576040517f08c379a0000000000000000000000000000000000000000000000000000000008152600401611d9090613386565b60405180910390fd5b611da28161170c565b15611de2576040517f08c379a0000000000000000000000000000000000000000000000000000000008152600401611dd9906133f2565b60405180910390fd5b611df06000838360016117d8565b611df98161170c565b15611e39576040517f08c379a0000000000000000000000000000000000000000000000000000000008152600401611e30906133f2565b60405180910390fd5b6001600360008473ffffffffffffffffffffffffffffffffffffffff1673ffffffffffffffffffffffffffffffffffffffff16815260200190815260200160002060008282540192505081905550816002600083815260200190815260200160002060006101000a81548173ffffffffffffffffffffffffffffffffffffffff021916908373ffffffffffffffffffffffffffffffffffffffff160217905550808273ffffffffffffffffffffffffffffffffffffffff16600073ffffffffffffffffffffffffffffffffffffffff167fddf252ad1be2c89b69c2b068fc378daa952ba7f163c4a11628f55a4df523b3ef60405160405180910390a4611f436000838360016118fe565b5050565b6040518060600160405280600390602082028036833780820191505090505090565b6000604051905090565b600080fd5b600080fd5b60007fffffffff0000000000000000000000000000000000000000000000000000000082169050919050565b611fb281611f7d565b8114611fbd57600080fd5b50565b600081359050611fcf81611fa9565b92915050565b600060208284031215611feb57611fea611f73565b5b6000611ff984828501611fc0565b91505092915050565b60008115159050919050565b61201781612002565b82525050565b6000602082019050612032600083018461200e565b92915050565b600081519050919050565b600082825260208201905092915050565b60005b83811015612072578082015181840152602081019050612057565b60008484015250505050565b6000601f19601f8301169050919050565b600061209a82612038565b6120a48185612043565b93506120b4818560208601612054565b6120bd8161207e565b840191505092915050565b600060208201905081810360008301526120e2818461208f565b905092915050565b6000819050919050565b6120fd816120ea565b811461210857600080fd5b50565b60008135905061211a816120f4565b92915050565b60006020828403121561213657612135611f73565b5b60006121448482850161210b565b91505092915050565b600073ffffffffffffffffffffffffffffffffffffffff82169050919050565b60006121788261214d565b9050919050565b6121888161216d565b82525050565b60006020820190506121a3600083018461217f565b92915050565b6121b28161216d565b81146121bd57600080fd5b50565b6000813590506121cf816121a9565b92915050565b600080604083850312156121ec576121eb611f73565b5b60006121fa858286016121c0565b925050602061220b8582860161210b565b9150509250929050565b61221e816120ea565b82525050565b60006020820190506122396000830184612215565b92915050565b600080fd5b7f4e487b7100000000000000000000000000000000000000000000000000000000600052604160045260246000fd5b61227c8261207e565b810181811067ffffffffffffffff8211171561229b5761229a612244565b5b80604052505050565b60006122ae611f69565b90506122ba8282612273565b919050565b600067ffffffffffffffff8211156122da576122d9612244565b5b602082029050602081019050919050565b600080fd5b60006123036122fe846122bf565b6122a4565b90508083825260208201905060208402830185811115612326576123256122eb565b5b835b8181101561234f578061233b888261210b565b845260208401935050602081019050612328565b5050509392505050565b600082601f83011261236e5761236d61223f565b5b813561237e8482602086016122f0565b91505092915050565b6000806040838503121561239e5761239d611f73565b5b60006123ac8582860161210b565b925050602083013567ffffffffffffffff8111156123cd576123cc611f78565b5b6123d985828601612359565b9150509250929050565b6000806000606084860312156123fc576123fb611f73565b5b600061240a868287016121c0565b935050602061241b868287016121c0565b925050604061242c8682870161210b565b9150509250925092565b600060039050919050565b600081905092915050565b6000819050919050565b61245f816120ea565b82525050565b60006124718383612456565b60208301905092915050565b6000602082019050919050565b61249381612436565b61249d8184612441565b92506124a88261244c565b8060005b838110156124d95781516124c08782612465565b96506124cb8361247d565b9250506001810190506124ac565b505050505050565b60006060820190506124f6600083018461248a565b92915050565b60006020828403121561251257612511611f73565b5b6000612520848285016121c0565b91505092915050565b61253281612002565b811461253d57600080fd5b50565b60008135905061254f81612529565b92915050565b6000806040838503121561256c5761256b611f73565b5b600061257a858286016121c0565b925050602061258b85828601612540565b9150509250929050565b600080fd5b600067ffffffffffffffff8211156125b5576125b4612244565b5b6125be8261207e565b9050602081019050919050565b82818337600083830152505050565b60006125ed6125e88461259a565b6122a4565b90508281526020810184848401111561260957612608612595565b5b6126148482856125cb565b509392505050565b600082601f8301126126315761263061223f565b5b81356126418482602086016125da565b91505092915050565b6000806000806080858703121561266457612663611f73565b5b6000612672878288016121c0565b9450506020612683878288016121c0565b93505060406126948782880161210b565b925050606085013567ffffffffffffffff8111156126b5576126b4611f78565b5b6126c18782880161261c565b91505092959194509250565b600080604083850312156126e4576126e3611f73565b5b60006126f2858286016121c0565b9250506020612703858286016121c0565b9150509250929050565b7f4e487b7100000000000000000000000000000000000000000000000000000000600052602260045260246000fd5b6000600282049050600182168061275457607f821691505b6020821081036127675761276661270d565b5b50919050565b7f4552433732313a20617070726f76616c20746f2063757272656e74206f776e6560008201527f7200000000000000000000000000000000000000000000000000000000000000602082015250565b60006127c9602183612043565b91506127d48261276d565b604082019050919050565b600060208201905081810360008301526127f8816127bc565b9050919050565b7f4552433732313a20617070726f76652063616c6c6572206973206e6f7420746f60008201527f6b656e206f776e6572206f7220617070726f76656420666f7220616c6c000000602082015250565b600061285b603d83612043565b9150612866826127ff565b604082019050919050565b6000602082019050818103600083015261288a8161284e565b9050919050565b6000819050919050565b6128a481612891565b82525050565b600067ffffffffffffffff82169050919050565b6128c7816128aa565b82525050565b600061ffff82169050919050565b6128e4816128cd565b82525050565b600063ffffffff82169050919050565b612903816128ea565b82525050565b600060a08201905061291e600083018861289b565b61292b60208301876128be565b61293860408301866128db565b61294560608301856128fa565b61295260808301846128fa565b9695505050505050565b60008151905061296b816120f4565b92915050565b60006020828403121561298757612986611f73565b5b60006129958482850161295c565b91505092915050565b60006040820190506129b3600083018561217f565b6129c0602083018461217f565b9392505050565b7f4552433732313a2063616c6c6572206973206e6f7420746f6b656e206f776e6560008201527f72206f7220617070726f76656400000000000000000000000000000000000000602082015250565b6000612a23602d83612043565b9150612a2e826129c7565b604082019050919050565b60006020820190508181036000830152612a5281612a16565b9050919050565b7f4552433732313a20696e76616c696420746f6b656e2049440000000000000000600082015250565b6000612a8f601883612043565b9150612a9a82612a59565b602082019050919050565b60006020820190508181036000830152612abe81612a82565b9050919050565b7f4552433732313a2061646472657373207a65726f206973206e6f74206120766160008201527f6c6964206f776e65720000000000000000000000000000000000000000000000602082015250565b6000612b21602983612043565b9150612b2c82612ac5565b604082019050919050565b60006020820190508181036000830152612b5081612b14565b9050919050565b7f4e487b7100000000000000000000000000000000000000000000000000000000600052603260045260246000fd5b7f4e487b7100000000000000000000000000000000000000000000000000000000600052601160045260246000fd5b6000612bc0826120ea565b9150612bcb836120ea565b9250828201905080821115612be357612be2612b86565b5b92915050565b6000612bf4826120ea565b91507fffffffffffffffffffffffffffffffffffffffffffffffffffffffffffffffff8203612c2657612c25612b86565b5b600182019050919050565b600081905092915050565b6000612c4782612038565b612c518185612c31565b9350612c61818560208601612054565b80840191505092915050565b6000612c798285612c3c565b9150612c858284612c3c565b91508190509392505050565b7f4e487b7100000000000000000000000000000000000000000000000000000000600052601260045260246000fd5b6000612ccb826120ea565b9150612cd6836120ea565b925082612ce657612ce5612c91565b5b828206905092915050565b7f4552433732313a207472616e736665722066726f6d20696e636f72726563742060008201527f6f776e6572000000000000000000000000000000000000000000000000000000602082015250565b6000612d4d602583612043565b9150612d5882612cf1565b604082019050919050565b60006020820190508181036000830152612d7c81612d40565b9050919050565b7f4552433732313a207472616e7366657220746f20746865207a65726f2061646460008201527f7265737300000000000000000000000000000000000000000000000000000000602082015250565b6000612ddf602483612043565b9150612dea82612d83565b604082019050919050565b60006020820190508181036000830152612e0e81612dd2565b9050919050565b7f4552433732313a20617070726f766520746f2063616c6c657200000000000000600082015250565b6000612e4b601983612043565b9150612e5682612e15565b602082019050919050565b60006020820190508181036000830152612e7a81612e3e565b9050919050565b7f4552433732313a207472616e7366657220746f206e6f6e20455243373231526560008201527f63656976657220696d706c656d656e7465720000000000000000000000000000602082015250565b6000612edd603283612043565b9150612ee882612e81565b604082019050919050565b60006020820190508181036000830152612f0c81612ed0565b9050919050565b7f45524337323155524953746f726167653a2055524920736574206f66206e6f6e60008201527f6578697374656e7420746f6b656e000000000000000000000000000000000000602082015250565b6000612f6f602e83612043565b9150612f7a82612f13565b604082019050919050565b60006020820190508181036000830152612f9e81612f62565b9050919050565b60008190508160005260206000209050919050565b60006020601f8301049050919050565b600082821b905092915050565b6000600883026130077fffffffffffffffffffffffffffffffffffffffffffffffffffffffffffffffff82612fca565b6130118683612fca565b95508019841693508086168417925050509392505050565b6000819050919050565b600061304e613049613044846120ea565b613029565b6120ea565b9050919050565b6000819050919050565b61306883613033565b61307c61307482613055565b848454612fd7565b825550505050565b600090565b613091613084565b61309c81848461305f565b505050565b5b818110156130c0576130b5600082613089565b6001810190506130a2565b5050565b601f821115613105576130d681612fa5565b6130df84612fba565b810160208510156130ee578190505b6131026130fa85612fba565b8301826130a1565b50505b505050565b600082821c905092915050565b60006131286000198460080261310a565b1980831691505092915050565b60006131418383613117565b9150826002028217905092915050565b61315a82612038565b67ffffffffffffffff81111561317357613172612244565b5b61317d825461273c565b6131888282856130c4565b600060209050601f8311600181146131bb57600084156131a9578287015190505b6131b38582613135565b86555061321b565b601f1984166131c986612fa5565b60005b828110156131f1578489015182556001820191506020850194506020810190506131cc565b8683101561320e578489015161320a601f891682613117565b8355505b6001600288020188555050505b505050505050565b600061322e826120ea565b9150613239836120ea565b925082820390508181111561325157613250612b86565b5b92915050565b600081519050919050565b600082825260208201905092915050565b600061327e82613257565b6132888185613262565b9350613298818560208601612054565b6132a18161207e565b840191505092915050565b60006080820190506132c1600083018761217f565b6132ce602083018661217f565b6132db6040830185612215565b81810360608301526132ed8184613273565b905095945050505050565b60008151905061330781611fa9565b92915050565b60006020828403121561332357613322611f73565b5b6000613331848285016132f8565b91505092915050565b7f4552433732313a206d696e7420746f20746865207a65726f2061646472657373600082015250565b6000613370602083612043565b915061337b8261333a565b602082019050919050565b6000602082019050818103600083015261339f81613363565b9050919050565b7f4552433732313a20746f6b656e20616c7265616479206d696e74656400000000600082015250565b60006133dc601c83612043565b91506133e7826133a6565b602082019050919050565b6000602082019050818103600083015261340b816133cf565b905091905056fea26469706673582212208f124221b21fa5f6ed9149510300004c763f38d192cec758055a2f5aadd93e8d64736f6c63430008110033",
  "devdoc": {
    "kind": "dev",
    "methods": {
      "approve(address,uint256)": {
        "details": "See {IERC721-approve}."
      },
      "balanceOf(address)": {
        "details": "See {IERC721-balanceOf}."
      },
      "getApproved(uint256)": {
        "details": "See {IERC721-getApproved}."
      },
      "isApprovedForAll(address,address)": {
        "details": "See {IERC721-isApprovedForAll}."
      },
      "name()": {
        "details": "See {IERC721Metadata-name}."
      },
      "ownerOf(uint256)": {
        "details": "See {IERC721-ownerOf}."
      },
      "safeTransferFrom(address,address,uint256)": {
        "details": "See {IERC721-safeTransferFrom}."
      },
      "safeTransferFrom(address,address,uint256,bytes)": {
        "details": "See {IERC721-safeTransferFrom}."
      },
      "setApprovalForAll(address,bool)": {
        "details": "See {IERC721-setApprovalForAll}."
      },
      "supportsInterface(bytes4)": {
        "details": "See {IERC165-supportsInterface}."
      },
      "symbol()": {
        "details": "See {IERC721Metadata-symbol}."
      },
      "tokenURI(uint256)": {
        "details": "See {IERC721Metadata-tokenURI}."
      },
      "transferFrom(address,address,uint256)": {
        "details": "See {IERC721-transferFrom}."
      }
    },
    "version": 1
  },
  "userdoc": {
    "kind": "user",
    "methods": {},
    "version": 1
  },
  "storageLayout": {
    "storage": [
      {
        "astId": 1137,
        "contract": "contracts/RandomIpfsNFT.sol:RandomIpfsNFT",
        "label": "_name",
        "offset": 0,
        "slot": "0",
        "type": "t_string_storage"
      },
      {
        "astId": 1139,
        "contract": "contracts/RandomIpfsNFT.sol:RandomIpfsNFT",
        "label": "_symbol",
        "offset": 0,
        "slot": "1",
        "type": "t_string_storage"
      },
      {
        "astId": 1143,
        "contract": "contracts/RandomIpfsNFT.sol:RandomIpfsNFT",
        "label": "_owners",
        "offset": 0,
        "slot": "2",
        "type": "t_mapping(t_uint256,t_address)"
      },
      {
        "astId": 1147,
        "contract": "contracts/RandomIpfsNFT.sol:RandomIpfsNFT",
        "label": "_balances",
        "offset": 0,
        "slot": "3",
        "type": "t_mapping(t_address,t_uint256)"
      },
      {
        "astId": 1151,
        "contract": "contracts/RandomIpfsNFT.sol:RandomIpfsNFT",
        "label": "_tokenApprovals",
        "offset": 0,
        "slot": "4",
        "type": "t_mapping(t_uint256,t_address)"
      },
      {
        "astId": 1157,
        "contract": "contracts/RandomIpfsNFT.sol:RandomIpfsNFT",
        "label": "_operatorApprovals",
        "offset": 0,
        "slot": "5",
        "type": "t_mapping(t_address,t_mapping(t_address,t_bool))"
      },
      {
        "astId": 2203,
        "contract": "contracts/RandomIpfsNFT.sol:RandomIpfsNFT",
        "label": "_tokenURIs",
        "offset": 0,
        "slot": "6",
        "type": "t_mapping(t_uint256,t_string_storage)"
      },
      {
        "astId": 3796,
        "contract": "contracts/RandomIpfsNFT.sol:RandomIpfsNFT",
        "label": "s_tokenCounter",
        "offset": 0,
        "slot": "7",
        "type": "t_uint256"
      },
      {
        "astId": 3801,
        "contract": "contracts/RandomIpfsNFT.sol:RandomIpfsNFT",
        "label": "s_initialized",
        "offset": 0,
        "slot": "8",
        "type": "t_bool"
      },
      {
        "astId": 3805,
        "contract": "contracts/RandomIpfsNFT.sol:RandomIpfsNFT",
        "label": "s_dogTokenUris",
        "offset": 0,
        "slot": "9",
        "type": "t_array(t_string_storage)3_storage"
      },
      {
        "astId": 3809,
        "contract": "contracts/RandomIpfsNFT.sol:RandomIpfsNFT",
        "label": "s_requestIdToSender",
        "offset": 0,
        "slot": "12",
        "type": "t_mapping(t_uint256,t_address)"
      }
    ],
    "types": {
      "t_address": {
        "encoding": "inplace",
        "label": "address",
        "numberOfBytes": "20"
      },
      "t_array(t_string_storage)3_storage": {
        "base": "t_string_storage",
        "encoding": "inplace",
        "label": "string[3]",
        "numberOfBytes": "96"
      },
      "t_bool": {
        "encoding": "inplace",
        "label": "bool",
        "numberOfBytes": "1"
      },
      "t_mapping(t_address,t_bool)": {
        "encoding": "mapping",
        "key": "t_address",
        "label": "mapping(address => bool)",
        "numberOfBytes": "32",
        "value": "t_bool"
      },
      "t_mapping(t_address,t_mapping(t_address,t_bool))": {
        "encoding": "mapping",
        "key": "t_address",
        "label": "mapping(address => mapping(address => bool))",
        "numberOfBytes": "32",
        "value": "t_mapping(t_address,t_bool)"
      },
      "t_mapping(t_address,t_uint256)": {
        "encoding": "mapping",
        "key": "t_address",
        "label": "mapping(address => uint256)",
        "numberOfBytes": "32",
        "value": "t_uint256"
      },
      "t_mapping(t_uint256,t_address)": {
        "encoding": "mapping",
        "key": "t_uint256",
        "label": "mapping(uint256 => address)",
        "numberOfBytes": "32",
        "value": "t_address"
      },
      "t_mapping(t_uint256,t_string_storage)": {
        "encoding": "mapping",
        "key": "t_uint256",
        "label": "mapping(uint256 => string)",
        "numberOfBytes": "32",
        "value": "t_string_storage"
      },
      "t_string_storage": {
        "encoding": "bytes",
        "label": "string",
        "numberOfBytes": "32"
      },
      "t_uint256": {
        "encoding": "inplace",
        "label": "uint256",
        "numberOfBytes": "32"
      }
    }
  }
}